ARM GAS  C:\Users\DUYLON~1\AppData\Local\Temp\cca1MEOj.s 			page 1


   1              		.syntax unified
   2              		.cpu cortex-m3
   3              		.fpu softvfp
   4              		.eabi_attribute 20, 1
   5              		.eabi_attribute 21, 1
   6              		.eabi_attribute 23, 3
   7              		.eabi_attribute 24, 1
   8              		.eabi_attribute 25, 1
   9              		.eabi_attribute 26, 1
  10              		.eabi_attribute 30, 1
  11              		.eabi_attribute 34, 1
  12              		.eabi_attribute 18, 4
  13              		.thumb
  14              		.file	"Serial_BOOT.c"
  15              		.text
  16              	.Ltext0:
  17              		.cfi_sections	.debug_frame
  18              		.section	.text.Serial_CyBtldrCommStart,"ax",%progbits
  19              		.align	2
  20              		.global	Serial_CyBtldrCommStart
  21              		.thumb
  22              		.thumb_func
  23              		.type	Serial_CyBtldrCommStart, %function
  24              	Serial_CyBtldrCommStart:
  25              	.LFB0:
  26              		.file 1 "Generated_Source\\PSoC5\\Serial_BOOT.c"
   1:Generated_Source\PSoC5/Serial_BOOT.c **** /*******************************************************************************
   2:Generated_Source\PSoC5/Serial_BOOT.c **** * File Name: Serial_BOOT.c
   3:Generated_Source\PSoC5/Serial_BOOT.c **** * Version 2.50
   4:Generated_Source\PSoC5/Serial_BOOT.c **** *
   5:Generated_Source\PSoC5/Serial_BOOT.c **** * Description:
   6:Generated_Source\PSoC5/Serial_BOOT.c **** *  This file provides the source code of bootloader communication APIs for the
   7:Generated_Source\PSoC5/Serial_BOOT.c **** *  UART component.
   8:Generated_Source\PSoC5/Serial_BOOT.c **** *
   9:Generated_Source\PSoC5/Serial_BOOT.c **** * Note:
  10:Generated_Source\PSoC5/Serial_BOOT.c **** *
  11:Generated_Source\PSoC5/Serial_BOOT.c **** ********************************************************************************
  12:Generated_Source\PSoC5/Serial_BOOT.c **** * Copyright 2008-2015, Cypress Semiconductor Corporation.  All rights reserved.
  13:Generated_Source\PSoC5/Serial_BOOT.c **** * You may use this file only in accordance with the license, terms, conditions,
  14:Generated_Source\PSoC5/Serial_BOOT.c **** * disclaimers, and limitations in the end user license agreement accompanying
  15:Generated_Source\PSoC5/Serial_BOOT.c **** * the software package with which this file was provided.
  16:Generated_Source\PSoC5/Serial_BOOT.c **** *******************************************************************************/
  17:Generated_Source\PSoC5/Serial_BOOT.c **** 
  18:Generated_Source\PSoC5/Serial_BOOT.c **** #include "Serial.h"
  19:Generated_Source\PSoC5/Serial_BOOT.c **** 
  20:Generated_Source\PSoC5/Serial_BOOT.c **** #if defined(CYDEV_BOOTLOADER_IO_COMP) && (0u != ((CYDEV_BOOTLOADER_IO_COMP == CyBtldr_Serial) || \
  21:Generated_Source\PSoC5/Serial_BOOT.c ****                                           (CYDEV_BOOTLOADER_IO_COMP == CyBtldr_Custom_Interface)))
  22:Generated_Source\PSoC5/Serial_BOOT.c **** 
  23:Generated_Source\PSoC5/Serial_BOOT.c **** 
  24:Generated_Source\PSoC5/Serial_BOOT.c **** /*******************************************************************************
  25:Generated_Source\PSoC5/Serial_BOOT.c **** * Function Name: Serial_CyBtldrCommStart
  26:Generated_Source\PSoC5/Serial_BOOT.c **** ********************************************************************************
  27:Generated_Source\PSoC5/Serial_BOOT.c **** *
  28:Generated_Source\PSoC5/Serial_BOOT.c **** * Summary:
  29:Generated_Source\PSoC5/Serial_BOOT.c **** *  Starts the UART communication component.
  30:Generated_Source\PSoC5/Serial_BOOT.c **** *
  31:Generated_Source\PSoC5/Serial_BOOT.c **** * Parameters:
ARM GAS  C:\Users\DUYLON~1\AppData\Local\Temp\cca1MEOj.s 			page 2


  32:Generated_Source\PSoC5/Serial_BOOT.c **** *  None
  33:Generated_Source\PSoC5/Serial_BOOT.c **** *
  34:Generated_Source\PSoC5/Serial_BOOT.c **** * Return:
  35:Generated_Source\PSoC5/Serial_BOOT.c **** *  None
  36:Generated_Source\PSoC5/Serial_BOOT.c **** *
  37:Generated_Source\PSoC5/Serial_BOOT.c **** * Side Effects:
  38:Generated_Source\PSoC5/Serial_BOOT.c **** *  This component automatically enables global interrupt.
  39:Generated_Source\PSoC5/Serial_BOOT.c **** *
  40:Generated_Source\PSoC5/Serial_BOOT.c **** *******************************************************************************/
  41:Generated_Source\PSoC5/Serial_BOOT.c **** void Serial_CyBtldrCommStart(void) CYSMALL 
  42:Generated_Source\PSoC5/Serial_BOOT.c **** {
  27              		.loc 1 42 0
  28              		.cfi_startproc
  29              		@ args = 0, pretend = 0, frame = 0
  30              		@ frame_needed = 0, uses_anonymous_args = 0
  31 0000 08B5     		push	{r3, lr}
  32              		.cfi_def_cfa_offset 8
  33              		.cfi_offset 3, -8
  34              		.cfi_offset 14, -4
  43:Generated_Source\PSoC5/Serial_BOOT.c ****     /* Start UART component and clear the Tx,Rx buffers */
  44:Generated_Source\PSoC5/Serial_BOOT.c ****     Serial_Start();
  35              		.loc 1 44 0
  36 0002 FFF7FEFF 		bl	Serial_Start
  37              	.LVL0:
  45:Generated_Source\PSoC5/Serial_BOOT.c ****     Serial_ClearRxBuffer();
  38              		.loc 1 45 0
  39 0006 FFF7FEFF 		bl	Serial_ClearRxBuffer
  40              	.LVL1:
  46:Generated_Source\PSoC5/Serial_BOOT.c ****     Serial_ClearTxBuffer();
  41              		.loc 1 46 0
  42 000a FFF7FEFF 		bl	Serial_ClearTxBuffer
  43              	.LVL2:
  44 000e 08BD     		pop	{r3, pc}
  45              		.cfi_endproc
  46              	.LFE0:
  47              		.size	Serial_CyBtldrCommStart, .-Serial_CyBtldrCommStart
  48              		.section	.text.Serial_CyBtldrCommStop,"ax",%progbits
  49              		.align	2
  50              		.global	Serial_CyBtldrCommStop
  51              		.thumb
  52              		.thumb_func
  53              		.type	Serial_CyBtldrCommStop, %function
  54              	Serial_CyBtldrCommStop:
  55              	.LFB1:
  47:Generated_Source\PSoC5/Serial_BOOT.c **** }
  48:Generated_Source\PSoC5/Serial_BOOT.c **** 
  49:Generated_Source\PSoC5/Serial_BOOT.c **** 
  50:Generated_Source\PSoC5/Serial_BOOT.c **** /*******************************************************************************
  51:Generated_Source\PSoC5/Serial_BOOT.c **** * Function Name: Serial_CyBtldrCommStop
  52:Generated_Source\PSoC5/Serial_BOOT.c **** ********************************************************************************
  53:Generated_Source\PSoC5/Serial_BOOT.c **** *
  54:Generated_Source\PSoC5/Serial_BOOT.c **** * Summary:
  55:Generated_Source\PSoC5/Serial_BOOT.c **** *  Disables the communication component and disables the interrupt.
  56:Generated_Source\PSoC5/Serial_BOOT.c **** *
  57:Generated_Source\PSoC5/Serial_BOOT.c **** * Parameters:
  58:Generated_Source\PSoC5/Serial_BOOT.c **** *  None
  59:Generated_Source\PSoC5/Serial_BOOT.c **** *
ARM GAS  C:\Users\DUYLON~1\AppData\Local\Temp\cca1MEOj.s 			page 3


  60:Generated_Source\PSoC5/Serial_BOOT.c **** * Return:
  61:Generated_Source\PSoC5/Serial_BOOT.c **** *  None
  62:Generated_Source\PSoC5/Serial_BOOT.c **** *
  63:Generated_Source\PSoC5/Serial_BOOT.c **** *******************************************************************************/
  64:Generated_Source\PSoC5/Serial_BOOT.c **** void Serial_CyBtldrCommStop(void) CYSMALL 
  65:Generated_Source\PSoC5/Serial_BOOT.c **** {
  56              		.loc 1 65 0
  57              		.cfi_startproc
  58              		@ args = 0, pretend = 0, frame = 0
  59              		@ frame_needed = 0, uses_anonymous_args = 0
  60 0000 08B5     		push	{r3, lr}
  61              		.cfi_def_cfa_offset 8
  62              		.cfi_offset 3, -8
  63              		.cfi_offset 14, -4
  66:Generated_Source\PSoC5/Serial_BOOT.c ****     /* Stop UART component */
  67:Generated_Source\PSoC5/Serial_BOOT.c ****     Serial_Stop();
  64              		.loc 1 67 0
  65 0002 FFF7FEFF 		bl	Serial_Stop
  66              	.LVL3:
  67 0006 08BD     		pop	{r3, pc}
  68              		.cfi_endproc
  69              	.LFE1:
  70              		.size	Serial_CyBtldrCommStop, .-Serial_CyBtldrCommStop
  71              		.section	.text.Serial_CyBtldrCommReset,"ax",%progbits
  72              		.align	2
  73              		.global	Serial_CyBtldrCommReset
  74              		.thumb
  75              		.thumb_func
  76              		.type	Serial_CyBtldrCommReset, %function
  77              	Serial_CyBtldrCommReset:
  78              	.LFB2:
  68:Generated_Source\PSoC5/Serial_BOOT.c **** }
  69:Generated_Source\PSoC5/Serial_BOOT.c **** 
  70:Generated_Source\PSoC5/Serial_BOOT.c **** 
  71:Generated_Source\PSoC5/Serial_BOOT.c **** /*******************************************************************************
  72:Generated_Source\PSoC5/Serial_BOOT.c **** * Function Name: Serial_CyBtldrCommReset
  73:Generated_Source\PSoC5/Serial_BOOT.c **** ********************************************************************************
  74:Generated_Source\PSoC5/Serial_BOOT.c **** *
  75:Generated_Source\PSoC5/Serial_BOOT.c **** * Summary:
  76:Generated_Source\PSoC5/Serial_BOOT.c **** *  Resets the receive and transmit communication Buffers.
  77:Generated_Source\PSoC5/Serial_BOOT.c **** *
  78:Generated_Source\PSoC5/Serial_BOOT.c **** * Parameters:
  79:Generated_Source\PSoC5/Serial_BOOT.c **** *  None
  80:Generated_Source\PSoC5/Serial_BOOT.c **** *
  81:Generated_Source\PSoC5/Serial_BOOT.c **** * Return:
  82:Generated_Source\PSoC5/Serial_BOOT.c **** *  None
  83:Generated_Source\PSoC5/Serial_BOOT.c **** *
  84:Generated_Source\PSoC5/Serial_BOOT.c **** *******************************************************************************/
  85:Generated_Source\PSoC5/Serial_BOOT.c **** void Serial_CyBtldrCommReset(void) CYSMALL 
  86:Generated_Source\PSoC5/Serial_BOOT.c **** {
  79              		.loc 1 86 0
  80              		.cfi_startproc
  81              		@ args = 0, pretend = 0, frame = 0
  82              		@ frame_needed = 0, uses_anonymous_args = 0
  83 0000 08B5     		push	{r3, lr}
  84              		.cfi_def_cfa_offset 8
  85              		.cfi_offset 3, -8
ARM GAS  C:\Users\DUYLON~1\AppData\Local\Temp\cca1MEOj.s 			page 4


  86              		.cfi_offset 14, -4
  87:Generated_Source\PSoC5/Serial_BOOT.c ****     /* Clear RX and TX buffers */
  88:Generated_Source\PSoC5/Serial_BOOT.c ****     Serial_ClearRxBuffer();
  87              		.loc 1 88 0
  88 0002 FFF7FEFF 		bl	Serial_ClearRxBuffer
  89              	.LVL4:
  89:Generated_Source\PSoC5/Serial_BOOT.c ****     Serial_ClearTxBuffer();
  90              		.loc 1 89 0
  91 0006 FFF7FEFF 		bl	Serial_ClearTxBuffer
  92              	.LVL5:
  93 000a 08BD     		pop	{r3, pc}
  94              		.cfi_endproc
  95              	.LFE2:
  96              		.size	Serial_CyBtldrCommReset, .-Serial_CyBtldrCommReset
  97              		.section	.text.Serial_CyBtldrCommWrite,"ax",%progbits
  98              		.align	2
  99              		.global	Serial_CyBtldrCommWrite
 100              		.thumb
 101              		.thumb_func
 102              		.type	Serial_CyBtldrCommWrite, %function
 103              	Serial_CyBtldrCommWrite:
 104              	.LFB3:
  90:Generated_Source\PSoC5/Serial_BOOT.c **** }
  91:Generated_Source\PSoC5/Serial_BOOT.c **** 
  92:Generated_Source\PSoC5/Serial_BOOT.c **** 
  93:Generated_Source\PSoC5/Serial_BOOT.c **** /*******************************************************************************
  94:Generated_Source\PSoC5/Serial_BOOT.c **** * Function Name: Serial_CyBtldrCommWrite
  95:Generated_Source\PSoC5/Serial_BOOT.c **** ********************************************************************************
  96:Generated_Source\PSoC5/Serial_BOOT.c **** *
  97:Generated_Source\PSoC5/Serial_BOOT.c **** * Summary:
  98:Generated_Source\PSoC5/Serial_BOOT.c **** *  Allows the caller to write data to the boot loader host. This function uses
  99:Generated_Source\PSoC5/Serial_BOOT.c **** * a blocking write function for writing data using UART communication component.
 100:Generated_Source\PSoC5/Serial_BOOT.c **** *
 101:Generated_Source\PSoC5/Serial_BOOT.c **** * Parameters:
 102:Generated_Source\PSoC5/Serial_BOOT.c **** *  pData:    A pointer to the block of data to send to the device
 103:Generated_Source\PSoC5/Serial_BOOT.c **** *  size:     The number of bytes to write.
 104:Generated_Source\PSoC5/Serial_BOOT.c **** *  count:    Pointer to an unsigned short variable to write the number of
 105:Generated_Source\PSoC5/Serial_BOOT.c **** *             bytes actually written.
 106:Generated_Source\PSoC5/Serial_BOOT.c **** *  timeOut:  Number of units to wait before returning because of a timeout.
 107:Generated_Source\PSoC5/Serial_BOOT.c **** *
 108:Generated_Source\PSoC5/Serial_BOOT.c **** * Return:
 109:Generated_Source\PSoC5/Serial_BOOT.c **** *   cystatus: This function will return CYRET_SUCCESS if data is sent
 110:Generated_Source\PSoC5/Serial_BOOT.c **** *             successfully.
 111:Generated_Source\PSoC5/Serial_BOOT.c **** *
 112:Generated_Source\PSoC5/Serial_BOOT.c **** * Side Effects:
 113:Generated_Source\PSoC5/Serial_BOOT.c **** *  This function should be called after command was received .
 114:Generated_Source\PSoC5/Serial_BOOT.c **** *
 115:Generated_Source\PSoC5/Serial_BOOT.c **** *******************************************************************************/
 116:Generated_Source\PSoC5/Serial_BOOT.c **** cystatus Serial_CyBtldrCommWrite(const uint8 pData[], uint16 size, uint16 * count, uint8 timeOut) C
 117:Generated_Source\PSoC5/Serial_BOOT.c ****          
 118:Generated_Source\PSoC5/Serial_BOOT.c **** {
 105              		.loc 1 118 0
 106              		.cfi_startproc
 107              		@ args = 0, pretend = 0, frame = 0
 108              		@ frame_needed = 0, uses_anonymous_args = 0
 109              	.LVL6:
 110 0000 F8B5     		push	{r3, r4, r5, r6, r7, lr}
ARM GAS  C:\Users\DUYLON~1\AppData\Local\Temp\cca1MEOj.s 			page 5


 111              		.cfi_def_cfa_offset 24
 112              		.cfi_offset 3, -24
 113              		.cfi_offset 4, -20
 114              		.cfi_offset 5, -16
 115              		.cfi_offset 6, -12
 116              		.cfi_offset 7, -8
 117              		.cfi_offset 14, -4
 118 0002 0646     		mov	r6, r0
 119 0004 0D46     		mov	r5, r1
 120 0006 1746     		mov	r7, r2
 121              	.LVL7:
 119:Generated_Source\PSoC5/Serial_BOOT.c ****     uint16 bufIndex = 0u;
 120:Generated_Source\PSoC5/Serial_BOOT.c **** 
 121:Generated_Source\PSoC5/Serial_BOOT.c ****     if(0u != timeOut)
 122:Generated_Source\PSoC5/Serial_BOOT.c ****     {
 123:Generated_Source\PSoC5/Serial_BOOT.c ****         /* Suppress compiler warning */
 124:Generated_Source\PSoC5/Serial_BOOT.c ****     }
 125:Generated_Source\PSoC5/Serial_BOOT.c **** 
 126:Generated_Source\PSoC5/Serial_BOOT.c ****     /* Clear receive buffers */
 127:Generated_Source\PSoC5/Serial_BOOT.c ****     Serial_ClearRxBuffer();
 122              		.loc 1 127 0
 123 0008 FFF7FEFF 		bl	Serial_ClearRxBuffer
 124              	.LVL8:
 119:Generated_Source\PSoC5/Serial_BOOT.c ****     uint16 bufIndex = 0u;
 125              		.loc 1 119 0
 126 000c 0024     		movs	r4, #0
 128:Generated_Source\PSoC5/Serial_BOOT.c **** 
 129:Generated_Source\PSoC5/Serial_BOOT.c ****     /* Write TX data using blocking function */
 130:Generated_Source\PSoC5/Serial_BOOT.c ****     while(bufIndex < size)
 127              		.loc 1 130 0
 128 000e 04E0     		b	.L8
 129              	.LVL9:
 130              	.L9:
 131:Generated_Source\PSoC5/Serial_BOOT.c ****     {
 132:Generated_Source\PSoC5/Serial_BOOT.c ****         Serial_PutChar(pData[bufIndex]);
 131              		.loc 1 132 0
 132 0010 305D     		ldrb	r0, [r6, r4]	@ zero_extendqisi2
 133 0012 FFF7FEFF 		bl	Serial_PutChar
 134              	.LVL10:
 133:Generated_Source\PSoC5/Serial_BOOT.c ****         bufIndex++;
 135              		.loc 1 133 0
 136 0016 0134     		adds	r4, r4, #1
 137              	.LVL11:
 138 0018 A4B2     		uxth	r4, r4
 139              	.LVL12:
 140              	.L8:
 130:Generated_Source\PSoC5/Serial_BOOT.c ****     {
 141              		.loc 1 130 0
 142 001a AC42     		cmp	r4, r5
 143 001c F8D3     		bcc	.L9
 134:Generated_Source\PSoC5/Serial_BOOT.c ****     }
 135:Generated_Source\PSoC5/Serial_BOOT.c **** 
 136:Generated_Source\PSoC5/Serial_BOOT.c ****     /* Return success code */
 137:Generated_Source\PSoC5/Serial_BOOT.c ****     *count = size;
 144              		.loc 1 137 0
 145 001e 3D80     		strh	r5, [r7]	@ movhi
 138:Generated_Source\PSoC5/Serial_BOOT.c **** 
ARM GAS  C:\Users\DUYLON~1\AppData\Local\Temp\cca1MEOj.s 			page 6


 139:Generated_Source\PSoC5/Serial_BOOT.c ****     return (CYRET_SUCCESS);
 140:Generated_Source\PSoC5/Serial_BOOT.c **** }
 146              		.loc 1 140 0
 147 0020 0020     		movs	r0, #0
 148 0022 F8BD     		pop	{r3, r4, r5, r6, r7, pc}
 149              		.cfi_endproc
 150              	.LFE3:
 151              		.size	Serial_CyBtldrCommWrite, .-Serial_CyBtldrCommWrite
 152              		.section	.text.Serial_CyBtldrCommRead,"ax",%progbits
 153              		.align	2
 154              		.global	Serial_CyBtldrCommRead
 155              		.thumb
 156              		.thumb_func
 157              		.type	Serial_CyBtldrCommRead, %function
 158              	Serial_CyBtldrCommRead:
 159              	.LFB4:
 141:Generated_Source\PSoC5/Serial_BOOT.c **** 
 142:Generated_Source\PSoC5/Serial_BOOT.c **** 
 143:Generated_Source\PSoC5/Serial_BOOT.c **** /*******************************************************************************
 144:Generated_Source\PSoC5/Serial_BOOT.c **** * Function Name: Serial_CyBtldrCommRead
 145:Generated_Source\PSoC5/Serial_BOOT.c **** ********************************************************************************
 146:Generated_Source\PSoC5/Serial_BOOT.c **** *
 147:Generated_Source\PSoC5/Serial_BOOT.c **** * Summary:
 148:Generated_Source\PSoC5/Serial_BOOT.c **** *  Receives the command.
 149:Generated_Source\PSoC5/Serial_BOOT.c **** *
 150:Generated_Source\PSoC5/Serial_BOOT.c **** * Parameters:
 151:Generated_Source\PSoC5/Serial_BOOT.c **** *  pData:    A pointer to the area to store the block of data received
 152:Generated_Source\PSoC5/Serial_BOOT.c **** *             from the device.
 153:Generated_Source\PSoC5/Serial_BOOT.c **** *  size:     Maximum size of the read buffer
 154:Generated_Source\PSoC5/Serial_BOOT.c **** *  count:    Pointer to an unsigned short variable to write the number
 155:Generated_Source\PSoC5/Serial_BOOT.c **** *             of bytes actually read.
 156:Generated_Source\PSoC5/Serial_BOOT.c **** *  timeOut:  Number of units to wait before returning because of a timeOut.
 157:Generated_Source\PSoC5/Serial_BOOT.c **** *            Time out is measured in 10s of ms.
 158:Generated_Source\PSoC5/Serial_BOOT.c **** *
 159:Generated_Source\PSoC5/Serial_BOOT.c **** * Return:
 160:Generated_Source\PSoC5/Serial_BOOT.c **** *  cystatus: This function will return CYRET_SUCCESS if at least one byte is
 161:Generated_Source\PSoC5/Serial_BOOT.c **** *            received successfully within the time out interval. If no data is
 162:Generated_Source\PSoC5/Serial_BOOT.c **** *            received  this function will return CYRET_EMPTY.
 163:Generated_Source\PSoC5/Serial_BOOT.c **** *
 164:Generated_Source\PSoC5/Serial_BOOT.c **** *  BYTE2BYTE_TIME_OUT is used for detecting time out marking end of block data
 165:Generated_Source\PSoC5/Serial_BOOT.c **** *  from host. This has to be set to a value which is greater than the expected
 166:Generated_Source\PSoC5/Serial_BOOT.c **** *  maximum delay between two bytes during a block/packet transmission from the
 167:Generated_Source\PSoC5/Serial_BOOT.c **** *  host. You have to account for the delay in hardware converters while
 168:Generated_Source\PSoC5/Serial_BOOT.c **** *  calculating this value, if you are using any USB-UART bridges.
 169:Generated_Source\PSoC5/Serial_BOOT.c **** *******************************************************************************/
 170:Generated_Source\PSoC5/Serial_BOOT.c **** cystatus Serial_CyBtldrCommRead(uint8 pData[], uint16 size, uint16 * count, uint8 timeOut) CYSMALL
 171:Generated_Source\PSoC5/Serial_BOOT.c ****          
 172:Generated_Source\PSoC5/Serial_BOOT.c **** {
 160              		.loc 1 172 0
 161              		.cfi_startproc
 162              		@ args = 0, pretend = 0, frame = 0
 163              		@ frame_needed = 0, uses_anonymous_args = 0
 164              	.LVL13:
 165 0000 2DE9F047 		push	{r4, r5, r6, r7, r8, r9, r10, lr}
 166              		.cfi_def_cfa_offset 32
 167              		.cfi_offset 4, -32
 168              		.cfi_offset 5, -28
ARM GAS  C:\Users\DUYLON~1\AppData\Local\Temp\cca1MEOj.s 			page 7


 169              		.cfi_offset 6, -24
 170              		.cfi_offset 7, -20
 171              		.cfi_offset 8, -16
 172              		.cfi_offset 9, -12
 173              		.cfi_offset 10, -8
 174              		.cfi_offset 14, -4
 175 0004 0746     		mov	r7, r0
 176 0006 8946     		mov	r9, r1
 177 0008 9046     		mov	r8, r2
 178 000a 1D46     		mov	r5, r3
 179              	.LVL14:
 173:Generated_Source\PSoC5/Serial_BOOT.c ****     uint16 iCntr;
 174:Generated_Source\PSoC5/Serial_BOOT.c ****     uint16 dataIndexCntr;
 175:Generated_Source\PSoC5/Serial_BOOT.c ****     uint16 tempCount;
 176:Generated_Source\PSoC5/Serial_BOOT.c ****     uint16 oldDataCount;
 177:Generated_Source\PSoC5/Serial_BOOT.c **** 
 178:Generated_Source\PSoC5/Serial_BOOT.c ****     cystatus status = CYRET_EMPTY;
 179:Generated_Source\PSoC5/Serial_BOOT.c **** 
 180:Generated_Source\PSoC5/Serial_BOOT.c ****     /* Check whether data is received within the time out period.
 181:Generated_Source\PSoC5/Serial_BOOT.c ****     *  Time out period is in units of 10ms.
 182:Generated_Source\PSoC5/Serial_BOOT.c ****     *  If at least one byte is received within the time out interval, wait for more data */
 183:Generated_Source\PSoC5/Serial_BOOT.c ****     for (iCntr = 0u; iCntr < ((uint16)10u * timeOut); iCntr++)
 180              		.loc 1 183 0
 181 000c 0024     		movs	r4, #0
 182 000e 14E0     		b	.L12
 183              	.LVL15:
 184              	.L16:
 184:Generated_Source\PSoC5/Serial_BOOT.c ****     {
 185:Generated_Source\PSoC5/Serial_BOOT.c ****         /* If at least one byte is received within the timeout interval
 186:Generated_Source\PSoC5/Serial_BOOT.c ****         *  enter the next loop waiting for more data reception
 187:Generated_Source\PSoC5/Serial_BOOT.c ****         */
 188:Generated_Source\PSoC5/Serial_BOOT.c ****         if(0u != Serial_GetRxBufferSize())
 185              		.loc 1 188 0
 186 0010 FFF7FEFF 		bl	Serial_GetRxBufferSize
 187              	.LVL16:
 188 0014 60B1     		cbz	r0, .L13
 189              	.LVL17:
 190              	.L14:
 189:Generated_Source\PSoC5/Serial_BOOT.c ****         {
 190:Generated_Source\PSoC5/Serial_BOOT.c ****             /* Wait for more data until 25ms byte to byte time out interval.
 191:Generated_Source\PSoC5/Serial_BOOT.c ****             * If no data is received during the last 25 ms(BYTE2BYTE_TIME_OUT)
 192:Generated_Source\PSoC5/Serial_BOOT.c ****             * then it is considered as end of transmitted data block(packet)
 193:Generated_Source\PSoC5/Serial_BOOT.c ****             * from the host and the program execution will break from the
 194:Generated_Source\PSoC5/Serial_BOOT.c ****             * data awaiting loop with status=CYRET_SUCCESS
 195:Generated_Source\PSoC5/Serial_BOOT.c ****             */
 196:Generated_Source\PSoC5/Serial_BOOT.c ****             do
 197:Generated_Source\PSoC5/Serial_BOOT.c ****             {
 198:Generated_Source\PSoC5/Serial_BOOT.c ****                 oldDataCount = Serial_GetRxBufferSize();
 191              		.loc 1 198 0 discriminator 1
 192 0016 FFF7FEFF 		bl	Serial_GetRxBufferSize
 193              	.LVL18:
 194 001a 0446     		mov	r4, r0
 195              	.LVL19:
 199:Generated_Source\PSoC5/Serial_BOOT.c ****                 CyDelay(Serial_BYTE2BYTE_TIME_OUT);
 196              		.loc 1 199 0 discriminator 1
 197 001c 1920     		movs	r0, #25
 198 001e FFF7FEFF 		bl	CyDelay
ARM GAS  C:\Users\DUYLON~1\AppData\Local\Temp\cca1MEOj.s 			page 8


 199              	.LVL20:
 200:Generated_Source\PSoC5/Serial_BOOT.c ****             }
 201:Generated_Source\PSoC5/Serial_BOOT.c ****             while(Serial_GetRxBufferSize() > oldDataCount);
 200              		.loc 1 201 0 discriminator 1
 201 0022 FFF7FEFF 		bl	Serial_GetRxBufferSize
 202              	.LVL21:
 203 0026 8442     		cmp	r4, r0
 204 0028 F5D3     		bcc	.L14
 202:Generated_Source\PSoC5/Serial_BOOT.c **** 
 203:Generated_Source\PSoC5/Serial_BOOT.c ****             status = CYRET_SUCCESS;
 205              		.loc 1 203 0
 206 002a 4FF0000A 		mov	r10, #0
 207 002e 0BE0     		b	.L15
 208              	.LVL22:
 209              	.L13:
 204:Generated_Source\PSoC5/Serial_BOOT.c ****             break;
 205:Generated_Source\PSoC5/Serial_BOOT.c ****         }
 206:Generated_Source\PSoC5/Serial_BOOT.c ****         /* If the data is not received, give a delay of 
 207:Generated_Source\PSoC5/Serial_BOOT.c ****         *  Serial_BL_CHK_DELAY_MS and check again until the timeOut specified.
 208:Generated_Source\PSoC5/Serial_BOOT.c ****         */
 209:Generated_Source\PSoC5/Serial_BOOT.c ****         else
 210:Generated_Source\PSoC5/Serial_BOOT.c ****         {
 211:Generated_Source\PSoC5/Serial_BOOT.c ****             CyDelay(Serial_BL_CHK_DELAY_MS);
 210              		.loc 1 211 0 discriminator 2
 211 0030 0120     		movs	r0, #1
 212 0032 FFF7FEFF 		bl	CyDelay
 213              	.LVL23:
 183:Generated_Source\PSoC5/Serial_BOOT.c ****     {
 214              		.loc 1 183 0 discriminator 2
 215 0036 0134     		adds	r4, r4, #1
 216              	.LVL24:
 217 0038 A4B2     		uxth	r4, r4
 218              	.LVL25:
 219              	.L12:
 183:Generated_Source\PSoC5/Serial_BOOT.c ****     {
 220              		.loc 1 183 0 is_stmt 0 discriminator 1
 221 003a 05EB8503 		add	r3, r5, r5, lsl #2
 222 003e 5B00     		lsls	r3, r3, #1
 223 0040 9C42     		cmp	r4, r3
 224 0042 E5DB     		blt	.L16
 178:Generated_Source\PSoC5/Serial_BOOT.c **** 
 225              		.loc 1 178 0 is_stmt 1
 226 0044 4FF0050A 		mov	r10, #5
 227              	.LVL26:
 228              	.L15:
 212:Generated_Source\PSoC5/Serial_BOOT.c ****         }
 213:Generated_Source\PSoC5/Serial_BOOT.c ****     }
 214:Generated_Source\PSoC5/Serial_BOOT.c **** 
 215:Generated_Source\PSoC5/Serial_BOOT.c ****     /* Initialize the data read indexes and Count value */
 216:Generated_Source\PSoC5/Serial_BOOT.c ****     *count = 0u;
 229              		.loc 1 216 0
 230 0048 0025     		movs	r5, #0
 231 004a A8F80050 		strh	r5, [r8]	@ movhi
 232              	.LVL27:
 217:Generated_Source\PSoC5/Serial_BOOT.c ****     dataIndexCntr = 0u;
 218:Generated_Source\PSoC5/Serial_BOOT.c **** 
 219:Generated_Source\PSoC5/Serial_BOOT.c ****     /* If GetRxBufferSize()>0 , move the received data to the pData buffer */
ARM GAS  C:\Users\DUYLON~1\AppData\Local\Temp\cca1MEOj.s 			page 9


 220:Generated_Source\PSoC5/Serial_BOOT.c ****     while(Serial_GetRxBufferSize() > 0u)
 233              		.loc 1 220 0
 234 004e 23E0     		b	.L17
 235              	.LVL28:
 236              	.L23:
 221:Generated_Source\PSoC5/Serial_BOOT.c ****     {
 222:Generated_Source\PSoC5/Serial_BOOT.c ****         tempCount = Serial_GetRxBufferSize();
 237              		.loc 1 222 0
 238 0050 FFF7FEFF 		bl	Serial_GetRxBufferSize
 239              	.LVL29:
 240 0054 86B2     		uxth	r6, r0
 241              	.LVL30:
 223:Generated_Source\PSoC5/Serial_BOOT.c ****         *count  =(*count) + tempCount;
 242              		.loc 1 223 0
 243 0056 B8F80030 		ldrh	r3, [r8]
 244 005a 3344     		add	r3, r3, r6
 245 005c 9BB2     		uxth	r3, r3
 246 005e A8F80030 		strh	r3, [r8]	@ movhi
 224:Generated_Source\PSoC5/Serial_BOOT.c **** 
 225:Generated_Source\PSoC5/Serial_BOOT.c ****         /* Check if buffer overflow will occur before moving the data */
 226:Generated_Source\PSoC5/Serial_BOOT.c ****         if(*count < size)
 247              		.loc 1 226 0
 248 0062 4B45     		cmp	r3, r9
 249 0064 08D3     		bcc	.L24
 250 0066 13E0     		b	.L25
 251              	.LVL31:
 252              	.L20:
 227:Generated_Source\PSoC5/Serial_BOOT.c ****         {
 228:Generated_Source\PSoC5/Serial_BOOT.c ****             for (iCntr = 0u; iCntr < tempCount; iCntr++)
 229:Generated_Source\PSoC5/Serial_BOOT.c ****             {
 230:Generated_Source\PSoC5/Serial_BOOT.c ****                 /* Read the data and move it to the pData buffer */
 231:Generated_Source\PSoC5/Serial_BOOT.c ****                 pData[dataIndexCntr] = Serial_ReadRxData();
 253              		.loc 1 231 0 discriminator 3
 254 0068 FFF7FEFF 		bl	Serial_ReadRxData
 255              	.LVL32:
 256 006c 7855     		strb	r0, [r7, r5]
 232:Generated_Source\PSoC5/Serial_BOOT.c ****                 dataIndexCntr++;
 257              		.loc 1 232 0 discriminator 3
 258 006e 0135     		adds	r5, r5, #1
 259              	.LVL33:
 260 0070 ADB2     		uxth	r5, r5
 261              	.LVL34:
 228:Generated_Source\PSoC5/Serial_BOOT.c ****             {
 262              		.loc 1 228 0 discriminator 3
 263 0072 0134     		adds	r4, r4, #1
 264              	.LVL35:
 265 0074 A4B2     		uxth	r4, r4
 266              	.LVL36:
 267 0076 00E0     		b	.L18
 268              	.LVL37:
 269              	.L24:
 270 0078 0024     		movs	r4, #0
 271              	.L18:
 272              	.LVL38:
 228:Generated_Source\PSoC5/Serial_BOOT.c ****             {
 273              		.loc 1 228 0 is_stmt 0 discriminator 1
 274 007a B442     		cmp	r4, r6
ARM GAS  C:\Users\DUYLON~1\AppData\Local\Temp\cca1MEOj.s 			page 10


 275 007c F4D3     		bcc	.L20
 233:Generated_Source\PSoC5/Serial_BOOT.c ****             }
 234:Generated_Source\PSoC5/Serial_BOOT.c **** 
 235:Generated_Source\PSoC5/Serial_BOOT.c ****             /* Check if the last received byte is end of packet defined by bootloader
 236:Generated_Source\PSoC5/Serial_BOOT.c ****             *  If not wait for additional Serial_WAIT_EOP_DELAY ms.
 237:Generated_Source\PSoC5/Serial_BOOT.c ****             */
 238:Generated_Source\PSoC5/Serial_BOOT.c ****             if(pData[dataIndexCntr - 1u] != Serial_PACKET_EOP)
 276              		.loc 1 238 0 is_stmt 1
 277 007e 7B19     		adds	r3, r7, r5
 278 0080 13F8013C 		ldrb	r3, [r3, #-1]	@ zero_extendqisi2
 279 0084 172B     		cmp	r3, #23
 280 0086 07D0     		beq	.L17
 239:Generated_Source\PSoC5/Serial_BOOT.c ****             {
 240:Generated_Source\PSoC5/Serial_BOOT.c ****                 CyDelay(Serial_WAIT_EOP_DELAY);
 281              		.loc 1 240 0
 282 0088 0520     		movs	r0, #5
 283 008a FFF7FEFF 		bl	CyDelay
 284              	.LVL39:
 285 008e 03E0     		b	.L17
 286              	.LVL40:
 287              	.L25:
 241:Generated_Source\PSoC5/Serial_BOOT.c ****             }
 242:Generated_Source\PSoC5/Serial_BOOT.c ****         }
 243:Generated_Source\PSoC5/Serial_BOOT.c ****         /* If there is no space to move data, break from the loop */
 244:Generated_Source\PSoC5/Serial_BOOT.c ****         else
 245:Generated_Source\PSoC5/Serial_BOOT.c ****         {
 246:Generated_Source\PSoC5/Serial_BOOT.c ****             *count = (*count) - tempCount;
 288              		.loc 1 246 0
 289 0090 9B1B     		subs	r3, r3, r6
 290 0092 A8F80030 		strh	r3, [r8]	@ movhi
 247:Generated_Source\PSoC5/Serial_BOOT.c ****             break;
 291              		.loc 1 247 0
 292 0096 03E0     		b	.L22
 293              	.LVL41:
 294              	.L17:
 220:Generated_Source\PSoC5/Serial_BOOT.c ****     {
 295              		.loc 1 220 0
 296 0098 FFF7FEFF 		bl	Serial_GetRxBufferSize
 297              	.LVL42:
 298 009c 0028     		cmp	r0, #0
 299 009e D7D1     		bne	.L23
 300              	.L22:
 248:Generated_Source\PSoC5/Serial_BOOT.c ****         }
 249:Generated_Source\PSoC5/Serial_BOOT.c ****     }
 250:Generated_Source\PSoC5/Serial_BOOT.c **** 
 251:Generated_Source\PSoC5/Serial_BOOT.c ****     return (status);
 252:Generated_Source\PSoC5/Serial_BOOT.c **** }
 301              		.loc 1 252 0
 302 00a0 5046     		mov	r0, r10
 303 00a2 BDE8F087 		pop	{r4, r5, r6, r7, r8, r9, r10, pc}
 304              		.cfi_endproc
 305              	.LFE4:
 306              		.size	Serial_CyBtldrCommRead, .-Serial_CyBtldrCommRead
 307 00a6 00BF     		.text
 308              	.Letext0:
 309              		.file 2 "Generated_Source\\PSoC5\\cytypes.h"
 310              		.file 3 "Generated_Source\\PSoC5\\Serial.h"
ARM GAS  C:\Users\DUYLON~1\AppData\Local\Temp\cca1MEOj.s 			page 11


 311              		.file 4 "Generated_Source\\PSoC5\\CyLib.h"
